{
  "contractName": "CauseFactory",
  "abi": [
    {
      "inputs": [],
      "payable": false,
      "stateMutability": "nonpayable",
      "type": "constructor"
    },
    {
      "anonymous": false,
      "inputs": [
        {
          "indexed": true,
          "internalType": "address",
          "name": "creator",
          "type": "address"
        },
        {
          "indexed": false,
          "internalType": "address",
          "name": "cause",
          "type": "address"
        },
        {
          "indexed": false,
          "internalType": "string",
          "name": "title",
          "type": "string"
        }
      ],
      "name": "CauseCreated",
      "type": "event"
    },
    {
      "constant": true,
      "inputs": [],
      "name": "Admin",
      "outputs": [
        {
          "internalType": "address",
          "name": "",
          "type": "address"
        }
      ],
      "payable": false,
      "stateMutability": "view",
      "type": "function"
    },
    {
      "constant": true,
      "inputs": [
        {
          "internalType": "address",
          "name": "",
          "type": "address"
        }
      ],
      "name": "CauseStatusMap",
      "outputs": [
        {
          "internalType": "bool",
          "name": "Exists",
          "type": "bool"
        },
        {
          "internalType": "bool",
          "name": "Active",
          "type": "bool"
        }
      ],
      "payable": false,
      "stateMutability": "view",
      "type": "function"
    },
    {
      "constant": true,
      "inputs": [
        {
          "internalType": "uint256",
          "name": "",
          "type": "uint256"
        }
      ],
      "name": "Causes",
      "outputs": [
        {
          "internalType": "address",
          "name": "",
          "type": "address"
        }
      ],
      "payable": false,
      "stateMutability": "view",
      "type": "function"
    },
    {
      "constant": true,
      "inputs": [
        {
          "internalType": "address",
          "name": "",
          "type": "address"
        },
        {
          "internalType": "uint256",
          "name": "",
          "type": "uint256"
        }
      ],
      "name": "CreatorCauseMap",
      "outputs": [
        {
          "internalType": "address",
          "name": "",
          "type": "address"
        }
      ],
      "payable": false,
      "stateMutability": "view",
      "type": "function"
    },
    {
      "constant": true,
      "inputs": [],
      "name": "IsEnable",
      "outputs": [
        {
          "internalType": "bool",
          "name": "",
          "type": "bool"
        }
      ],
      "payable": false,
      "stateMutability": "view",
      "type": "function"
    },
    {
      "constant": false,
      "inputs": [],
      "name": "ToggleContractStatus",
      "outputs": [],
      "payable": false,
      "stateMutability": "nonpayable",
      "type": "function"
    },
    {
      "constant": false,
      "inputs": [
        {
          "internalType": "string",
          "name": "title",
          "type": "string"
        },
        {
          "internalType": "string",
          "name": "detail",
          "type": "string"
        },
        {
          "internalType": "uint256",
          "name": "targetAmount",
          "type": "uint256"
        },
        {
          "internalType": "uint256",
          "name": "startTime",
          "type": "uint256"
        },
        {
          "internalType": "uint256",
          "name": "endTime",
          "type": "uint256"
        }
      ],
      "name": "CreateCause",
      "outputs": [],
      "payable": false,
      "stateMutability": "nonpayable",
      "type": "function"
    },
    {
      "constant": true,
      "inputs": [
        {
          "internalType": "address",
          "name": "creator",
          "type": "address"
        }
      ],
      "name": "GetCauses",
      "outputs": [
        {
          "internalType": "address[]",
          "name": "causeAddresses",
          "type": "address[]"
        }
      ],
      "payable": false,
      "stateMutability": "view",
      "type": "function"
    },
    {
      "constant": true,
      "inputs": [],
      "name": "GetAllCauses",
      "outputs": [
        {
          "internalType": "address[]",
          "name": "causeAddresses",
          "type": "address[]"
        }
      ],
      "payable": false,
      "stateMutability": "view",
      "type": "function"
    }
  ],
  "bytecode": "0x608060405234801561001057600080fd5b5033600060016101000a81548173ffffffffffffffffffffffffffffffffffffffff021916908373ffffffffffffffffffffffffffffffffffffffff16021790555060016000806101000a81548160ff021916908315150217905550611ed38061007b6000396000f3fe60806040523480156200001157600080fd5b5060043610620000a05760003560e01c8063a42621f7116200006f578063a42621f7146200025b578063f07e092a1462000267578063f8a7ad7814620002d8578063faafbdd61462000451578063ff1b636d14620004bb57620000a0565b806322085c8f14620000a55780635c26a00714620001085780637ed037a9146200012c5780639aa1b77814620001ca575b600080fd5b620000af62000507565b6040518080602001828103825283818151815260200191508051906020019060200280838360005b83811015620000f4578082015181840152602081019050620000d7565b505050509050019250505060405180910390f35b6200011262000597565b604051808215151515815260200191505060405180910390f35b62000171600480360360208110156200014457600080fd5b81019080803573ffffffffffffffffffffffffffffffffffffffff169060200190929190505050620005a9565b6040518080602001828103825283818151815260200191508051906020019060200280838360005b83811015620001b657808201518184015260208101905062000199565b505050509050019250505060405180910390f35b6200021960048036036040811015620001e257600080fd5b81019080803573ffffffffffffffffffffffffffffffffffffffff1690602001909291908035906020019092919050505062000678565b604051808273ffffffffffffffffffffffffffffffffffffffff1673ffffffffffffffffffffffffffffffffffffffff16815260200191505060405180910390f35b62000265620006c4565b005b62000296600480360360208110156200027f57600080fd5b810190808035906020019092919050505062000796565b604051808273ffffffffffffffffffffffffffffffffffffffff1673ffffffffffffffffffffffffffffffffffffffff16815260200191505060405180910390f35b6200044f600480360360a0811015620002f057600080fd5b81019080803590602001906401000000008111156200030e57600080fd5b8201836020820111156200032157600080fd5b803590602001918460018302840111640100000000831117156200034457600080fd5b91908080601f016020809104026020016040519081016040528093929190818152602001838380828437600081840152601f19601f82011690508083019250505050505050919291929080359060200190640100000000811115620003a857600080fd5b820183602082011115620003bb57600080fd5b80359060200191846001830284011164010000000083111715620003de57600080fd5b91908080601f016020809104026020016040519081016040528093929190818152602001838380828437600081840152601f19601f820116905080830192505050505050509192919290803590602001909291908035906020019092919080359060200190929190505050620007d3565b005b62000496600480360360208110156200046957600080fd5b81019080803573ffffffffffffffffffffffffffffffffffffffff16906020019092919050505062000c49565b6040518083151515158152602001821515151581526020019250505060405180910390f35b620004c562000c87565b604051808273ffffffffffffffffffffffffffffffffffffffff1673ffffffffffffffffffffffffffffffffffffffff16815260200191505060405180910390f35b606060018054806020026020016040519081016040528092919081815260200182805480156200058d57602002820191906000526020600020905b8160009054906101000a900473ffffffffffffffffffffffffffffffffffffffff1673ffffffffffffffffffffffffffffffffffffffff168152602001906001019080831162000542575b5050505050905090565b6000809054906101000a900460ff1681565b6060600260008373ffffffffffffffffffffffffffffffffffffffff1673ffffffffffffffffffffffffffffffffffffffff1681526020019081526020016000208054806020026020016040519081016040528092919081815260200182805480156200066c57602002820191906000526020600020905b8160009054906101000a900473ffffffffffffffffffffffffffffffffffffffff1673ffffffffffffffffffffffffffffffffffffffff168152602001906001019080831162000621575b50505050509050919050565b600260205281600052604060002081815481106200069257fe5b906000526020600020016000915091509054906101000a900473ffffffffffffffffffffffffffffffffffffffff1681565b600060019054906101000a900473ffffffffffffffffffffffffffffffffffffffff1673ffffffffffffffffffffffffffffffffffffffff163373ffffffffffffffffffffffffffffffffffffffff16146200076c576040517f08c379a000000000000000000000000000000000000000000000000000000000815260040180806020018281038252603081526020018062001e6f6030913960400191505060405180910390fd5b6000809054906101000a900460ff16156000806101000a81548160ff021916908315150217905550565b60018181548110620007a457fe5b906000526020600020016000915054906101000a900473ffffffffffffffffffffffffffffffffffffffff1681565b6000809054906101000a900460ff1662000839576040517f08c379a000000000000000000000000000000000000000000000000000000000815260040180806020018281038252602b81526020018062001e44602b913960400191505060405180910390fd5b60008585858585336040516200084f9062000cad565b8080602001806020018781526020018681526020018581526020018473ffffffffffffffffffffffffffffffffffffffff1673ffffffffffffffffffffffffffffffffffffffff168152602001838103835289818151815260200191508051906020019080838360005b83811015620008d6578082015181840152602081019050620008b9565b50505050905090810190601f168015620009045780820380516001836020036101000a031916815260200191505b50838103825288818151815260200191508051906020019080838360005b838110156200093f57808201518184015260208101905062000922565b50505050905090810190601f1680156200096d5780820380516001836020036101000a031916815260200191505b5098505050505050505050604051809103906000f08015801562000995573d6000803e3d6000fd5b50905060018190806001815401808255809150509060018203906000526020600020016000909192909190916101000a81548173ffffffffffffffffffffffffffffffffffffffff021916908373ffffffffffffffffffffffffffffffffffffffff16021790555050600260003373ffffffffffffffffffffffffffffffffffffffff1673ffffffffffffffffffffffffffffffffffffffff1681526020019081526020016000208190806001815401808255809150509060018203906000526020600020016000909192909190916101000a81548173ffffffffffffffffffffffffffffffffffffffff021916908373ffffffffffffffffffffffffffffffffffffffff160217905550506001600360008373ffffffffffffffffffffffffffffffffffffffff1673ffffffffffffffffffffffffffffffffffffffff16815260200190815260200160002060000160006101000a81548160ff0219169083151502179055506001600360008373ffffffffffffffffffffffffffffffffffffffff1673ffffffffffffffffffffffffffffffffffffffff16815260200190815260200160002060000160016101000a81548160ff0219169083151502179055503373ffffffffffffffffffffffffffffffffffffffff167fb8cc3d292447964f5d464706e7e1a2ae07461232caf7f613267489749422cd4d8288604051808373ffffffffffffffffffffffffffffffffffffffff1673ffffffffffffffffffffffffffffffffffffffff16815260200180602001828103825283818151815260200191508051906020019080838360005b8381101562000c0557808201518184015260208101905062000be8565b50505050905090810190601f16801562000c335780820380516001836020036101000a031916815260200191505b50935050505060405180910390a2505050505050565b60036020528060005260406000206000915090508060000160009054906101000a900460ff16908060000160019054906101000a900460ff16905082565b600060019054906101000a900473ffffffffffffffffffffffffffffffffffffffff1681565b6111888062000cbc8339019056fe60806040523480156200001157600080fd5b506040516200118838038062001188833981810160405260c08110156200003757600080fd5b81019080805160405193929190846401000000008211156200005857600080fd5b838201915060208201858111156200006f57600080fd5b82518660018202830111640100000000821117156200008d57600080fd5b8083526020830192505050908051906020019080838360005b83811015620000c3578082015181840152602081019050620000a6565b50505050905090810190601f168015620000f15780820380516001836020036101000a031916815260200191505b50604052602001805160405193929190846401000000008211156200011557600080fd5b838201915060208201858111156200012c57600080fd5b82518660018202830111640100000000821117156200014a57600080fd5b8083526020830192505050908051906020019080838360005b838110156200018057808201518184015260208101905062000163565b50505050905090810190601f168015620001ae5780820380516001836020036101000a031916815260200191505b50604052602001805190602001909291908051906020019092919080519060200190929190805190602001909291905050506014865111156200023d576040517f08c379a00000000000000000000000000000000000000000000000000000000081526004018080602001828103825260398152602001806200108d6039913960400191505060405180910390fd5b6064855111156200029a576040517f08c379a000000000000000000000000000000000000000000000000000000000815260040180806020018281038252603b815260200180620010c6603b913960400191505060405180910390fd5b60008411620002f5576040517f08c379a0000000000000000000000000000000000000000000000000000000008152600401808060200182810382526030815260200180620011586030913960400191505060405180910390fd5b4283116200034f576040517f08c379a0000000000000000000000000000000000000000000000000000000008152600401808060200182810382526023815260200180620011016023913960400191505060405180910390fd5b828211620003a9576040517f08c379a0000000000000000000000000000000000000000000000000000000008152600401808060200182810382526034815260200180620011246034913960400191505060405180910390fd5b33600160006101000a81548173ffffffffffffffffffffffffffffffffffffffff021916908373ffffffffffffffffffffffffffffffffffffffff16021790555080600060016101000a81548173ffffffffffffffffffffffffffffffffffffffff021916908373ffffffffffffffffffffffffffffffffffffffff1602179055508560029080519060200190620004439291906200053e565b5084600390805190602001906200045c9291906200053e565b5083600481905550826005819055508160068190555060008060006101000a81548160ff021916908315150217905550856040518082805190602001908083835b60208310620004c257805182526020820191506020810190506020830392506200049d565b6001836020036101000a03801982511681845116808217855250505050505090500191505060405180910390208173ffffffffffffffffffffffffffffffffffffffff167fb2e1f06987117f65cd734e75f26346e208a3559e39abe57f7760f4d3ac4a361760405160405180910390a3505050505050620005ed565b828054600181600116156101000203166002900490600052602060002090601f016020900481019282601f106200058157805160ff1916838001178555620005b2565b82800160010185558215620005b2579182015b82811115620005b157825182559160200191906001019062000594565b5b509050620005c19190620005c5565b5090565b620005ea91905b80821115620005e6576000816000905550600101620005cc565b5090565b90565b610a9080620005fd6000396000f3fe6080604052600436106100865760003560e01c8063b4a99a4e11610059578063b4a99a4e146101b4578063b87f04041461020b578063d16e18f51461029b578063d917deb5146102c6578063fc4a4a1e146102d057610086565b806318bee97e1461008b57806333360978146100e257806357ea89b61461010d578063b47d89ad14610124575b600080fd5b34801561009757600080fd5b506100a06102fb565b604051808273ffffffffffffffffffffffffffffffffffffffff1673ffffffffffffffffffffffffffffffffffffffff16815260200191505060405180910390f35b3480156100ee57600080fd5b506100f7610321565b6040518082815260200191505060405180910390f35b34801561011957600080fd5b50610122610327565b005b34801561013057600080fd5b506101396105d0565b6040518080602001828103825283818151815260200191508051906020019080838360005b8381101561017957808201518184015260208101905061015e565b50505050905090810190601f1680156101a65780820380516001836020036101000a031916815260200191505b509250505060405180910390f35b3480156101c057600080fd5b506101c961066e565b604051808273ffffffffffffffffffffffffffffffffffffffff1673ffffffffffffffffffffffffffffffffffffffff16815260200191505060405180910390f35b34801561021757600080fd5b50610220610694565b6040518080602001828103825283818151815260200191508051906020019080838360005b83811015610260578082015181840152602081019050610245565b50505050905090810190601f16801561028d5780820380516001836020036101000a031916815260200191505b509250505060405180910390f35b3480156102a757600080fd5b506102b0610732565b6040518082815260200191505060405180910390f35b6102ce610738565b005b3480156102dc57600080fd5b506102e56108b8565b6040518082815260200191505060405180910390f35b600160009054906101000a900473ffffffffffffffffffffffffffffffffffffffff1681565b60065481565b600060019054906101000a900473ffffffffffffffffffffffffffffffffffffffff1673ffffffffffffffffffffffffffffffffffffffff163373ffffffffffffffffffffffffffffffffffffffff16146103cd576040517f08c379a00000000000000000000000000000000000000000000000000000000081526004018080602001828103825260358152602001806108bf6035913960400191505060405180910390fd5b4260065410610427576040517f08c379a000000000000000000000000000000000000000000000000000000000815260040180806020018281038252604e815260200180610977604e913960600191505060405180910390fd5b600015156000809054906101000a900460ff16151514610492576040517f08c379a000000000000000000000000000000000000000000000000000000000815260040180806020018281038252603881526020018061093f6038913960400191505060405180910390fd5b600047905060016000806101000a81548160ff02191690831515021790555060008060019054906101000a900473ffffffffffffffffffffffffffffffffffffffff1673ffffffffffffffffffffffffffffffffffffffff168260405180600001905060006040518083038185875af1925050503d8060008114610532576040519150601f19603f3d011682016040523d82523d6000602084013e610537565b606091505b505090508061054557600080fd5b600060019054906101000a900473ffffffffffffffffffffffffffffffffffffffff1673ffffffffffffffffffffffffffffffffffffffff163073ffffffffffffffffffffffffffffffffffffffff167f2717ead6b9200dd235aad468c9809ea400fe33ac69b5bfaa6d3e90fc922b6398846040518082815260200191505060405180910390a35050565b60038054600181600116156101000203166002900480601f0160208091040260200160405190810160405280929190818152602001828054600181600116156101000203166002900480156106665780601f1061063b57610100808354040283529160200191610666565b820191906000526020600020905b81548152906001019060200180831161064957829003601f168201915b505050505081565b600060019054906101000a900473ffffffffffffffffffffffffffffffffffffffff1681565b60028054600181600116156101000203166002900480601f01602080910402602001604051908101604052809291908181526020018280546001816001161561010002031660029004801561072a5780601f106106ff5761010080835404028352916020019161072a565b820191906000526020600020905b81548152906001019060200180831161070d57829003601f168201915b505050505081565b60045481565b600554421015610793576040517f08c379a000000000000000000000000000000000000000000000000000000000815260040180806020018281038252604f8152602001806109c5604f913960600191505060405180910390fd5b6006544211156107ee576040517f08c379a000000000000000000000000000000000000000000000000000000000815260040180806020018281038252604b8152602001806108f4604b913960600191505060405180910390fd5b600454471115610849576040517f08c379a0000000000000000000000000000000000000000000000000000000008152600401808060200182810382526048815260200180610a146048913960600191505060405180910390fd5b3373ffffffffffffffffffffffffffffffffffffffff163073ffffffffffffffffffffffffffffffffffffffff167f30d7de5d52bfd6be55049aa459cdba52dcdf6587f9a6b6f36e985ad31e42a36d3447604051808381526020018281526020019250505060405180910390a3565b6005548156fe54686973206163636f756e74206973206e6f7420616c6c6f77656420746f20696e766f6b652074686973206f7065726174696f6e2e446f6e6174696f6e206973206e6f74206265696e6720616363657074656420666f7220746869732063617573652e20446f6e6174696f6e20706572696f642068617320657870697265642e5769746864726177206f7065726174696f6e206e6f7420616c6c6f7765642e2046756e647320616c72656164792077697468647261776e2e5769746864726177206f7065726174696f6e206e6f7420616c6c6f7765642e204361757365206973207374696c6c2061637469766520616e6420616363657074696e6720646f6e6174696f6e732e446f6e6174696f6e206973206e6f74206265696e6720616363657074656420666f7220746869732063617573652e20446f6e6174696f6e20706572696f6420686176656e277420737461727465642e446f6e6174696f6e206973206e6f74206265696e6720616363657074656420666f7220746869732063617573652e2054617267657420686173206265656e2061636869657665642ea265627a7a72315820fa71e6677b299257280a80b9f02d5357681c0ccda757176c056e66f73bb65e8a64736f6c63430005100032506c656173652070726f7669646520612073686f7274207469746c6520776869636820697320756e646572203230206368617261637465722e506c656173652070726f7669646520612073686f72742064657461696c20776869636820697320756e64657220313030206368617261637465722e53746172742074696d652073686f756c642062652061206675747572652074696d652e456e642074696d652073686f756c6420626520696e2066757475726520636f6d706172656420746f2053746172742074696d652e506c656173652070726f7669646520612076616c696420616d6f756e7420666f722054617267657420416d6f756e742e436f6e74726163742069732064697361626c65642e204e6f206f7065726174696f6e20616c6c6f7765642e4f6e6c792061646d696e20697320616c6c6f77656420746f20657865637574652074686973206f7065726174696f6e2ea265627a7a723158205de3e2ce325412977e1c3023c1922a08b278fa8415ab8ac1ce45fc4e0161502764736f6c63430005100032",
  "source": "// SPDX-License-Identifier: MIT\r\n\r\nimport \"./Cause.sol\";\r\n\r\npragma solidity 0.5.16;\r\n\r\n/// @title Factory Contract for management of Cause Contract\r\n/// @author Ashutosh Singh Parmar\r\n/// @notice Enables to create Cause\r\ncontract CauseFactory {\r\n    \r\n    /// @notice Status of Cause Factory\r\n    /// @return true if Contract operations are allowed otherwise false.\r\n    bool public IsEnable;\r\n\r\n    /// @notice Owner of this Factory Contract\r\n    /// @dev Owner will have admin privilages for this Contract\r\n    /// @return Address of the Owner of this Contract\r\n    address public Admin;\r\n\r\n    address[] public Causes;\r\n\r\n    mapping(address => address[]) public CreatorCauseMap; //Design Factory\r\n\r\n    mapping(address => CauseStatus) public CauseStatusMap; //Design: Registry of Contract Status, https://medium.com/@i6mi6/solidty-smart-contracts-design-patterns-ecfa3b1e9784\r\n    \r\n    constructor() public {\r\n        Admin = msg.sender;\r\n        IsEnable = true;\r\n    }\r\n\r\n    /// @notice Structure to hold Cause status\r\n    struct CauseStatus {\r\n        bool Exists;\r\n        bool Active;\r\n    }\r\n\r\n    /// @notice Event emitted when a cause is created\r\n    /// @param creator Account Address which created the Cause\r\n    /// @param cause Address of the newly created Cause\r\n    /// @param title Title of the newly created Cause\r\n    event CauseCreated(address indexed creator, address cause, string title);\r\n\r\n    modifier isAdmin() {\r\n        require(msg.sender == Admin, \"Only admin is allowed to execute this operation.\");\r\n        _;\r\n    }\r\n\r\n    modifier isContractEnabled() {\r\n        require(IsEnable, \"Contract is disabled. No operation allowed.\");\r\n        _;\r\n    }\r\n\r\n    /// @notice Toggles the status of the Factory. Operations are allowed only when its enabled. Circuit breaker pattern.\r\n    function ToggleContractStatus() external isAdmin {\r\n        IsEnable = !IsEnable; //Design: Circuit Breaker Pattern\r\n    }\r\n\r\n    /// @notice Creates a new Cause with the provided parameters and emits an Event\r\n    /// @param title Title for Cause\r\n    /// @param detail A brief detail about Cause\r\n    /// @param targetAmount Target Amount for Cause\r\n    /// @param startTime Start Time for Cause\r\n    /// @param endTime End Time for Cause\r\n    function CreateCause(string memory title, string memory detail, uint targetAmount, uint startTime, uint endTime) \r\n    public\r\n    isContractEnabled\r\n    {\r\n        Cause causeInstance = new Cause(title, detail, targetAmount, startTime, endTime, msg.sender);\r\n        \r\n        Causes.push(address(causeInstance));\r\n        CreatorCauseMap[msg.sender].push(address(causeInstance));\r\n        \r\n        CauseStatusMap[address(causeInstance)].Exists = true;\r\n        CauseStatusMap[address(causeInstance)].Active = true;\r\n\r\n        emit CauseCreated(msg.sender, address(causeInstance), title);\r\n    }\r\n\r\n    /// @notice Gets all the Cause Contract Addresses created by supplied Creator \r\n    /// @param creator Account Address which created Causes\r\n    /// @return causeAddresses Cause Contract Addresses created by Creator \r\n    function GetCauses(address creator) \r\n    public\r\n    view\r\n    returns(address[] memory causeAddresses) {\r\n        return CreatorCauseMap[creator];\r\n    }\r\n\r\n    /// @notice Gets all the Cause Contract Addresses created by supplied Creator \r\n    /// @return causeAddresses All the Cause Contract Addresses created till now \r\n    function GetAllCauses() \r\n    public\r\n    view\r\n    returns(address[] memory causeAddresses) {\r\n        return Causes;\r\n    }\r\n\r\n    //TODO: Provide Operation Mark Contract InActive, it will be called once fund has been withdrawn from the Contract successfully\r\n    //TODO: Provide Operation to get Cause Status\r\n}",
  "sourcePath": "E:/Project-Bootcamp/donation/contracts/CauseFactory.sol",
  "compiler": {
    "name": "solc",
    "version": "0.5.16+commit.9c3226ce.Emscripten.clang"
  },
  "schemaVersion": "3.3.2",
  "updatedAt": "2020-12-04T18:23:45.047Z",
  "networkType": "ethereum",
  "devdoc": {
    "author": "Ashutosh Singh Parmar",
    "methods": {
      "CreateCause(string,string,uint256,uint256,uint256)": {
        "params": {
          "detail": "A brief detail about Cause",
          "endTime": "End Time for Cause",
          "startTime": "Start Time for Cause",
          "targetAmount": "Target Amount for Cause",
          "title": "Title for Cause"
        }
      },
      "GetAllCauses()": {
        "return": "causeAddresses All the Cause Contract Addresses created till now "
      },
      "GetCauses(address)": {
        "params": {
          "creator": "Account Address which created Causes"
        },
        "return": "causeAddresses Cause Contract Addresses created by Creator "
      }
    },
    "title": "Factory Contract for management of Cause Contract"
  },
  "userdoc": {
    "methods": {
      "CreateCause(string,string,uint256,uint256,uint256)": {
        "notice": "Creates a new Cause with the provided parameters and emits an Event"
      },
      "GetAllCauses()": {
        "notice": "Gets all the Cause Contract Addresses created by supplied Creator "
      },
      "GetCauses(address)": {
        "notice": "Gets all the Cause Contract Addresses created by supplied Creator "
      },
      "ToggleContractStatus()": {
        "notice": "Toggles the status of the Factory. Operations are allowed only when its enabled. Circuit breaker pattern."
      }
    },
    "notice": "Enables to create Cause"
  }
}