{
  "contractName": "Cause",
  "abi": [
    {
      "inputs": [
        {
          "internalType": "string",
          "name": "title",
          "type": "string"
        },
        {
          "internalType": "string",
          "name": "details",
          "type": "string"
        },
        {
          "internalType": "uint256",
          "name": "targetAmount",
          "type": "uint256"
        },
        {
          "internalType": "uint256",
          "name": "startTime",
          "type": "uint256"
        },
        {
          "internalType": "uint256",
          "name": "endTime",
          "type": "uint256"
        },
        {
          "internalType": "address payable",
          "name": "owner",
          "type": "address"
        }
      ],
      "payable": false,
      "stateMutability": "nonpayable",
      "type": "constructor"
    },
    {
      "anonymous": false,
      "inputs": [
        {
          "indexed": true,
          "internalType": "address",
          "name": "owner",
          "type": "address"
        },
        {
          "indexed": true,
          "internalType": "string",
          "name": "title",
          "type": "string"
        }
      ],
      "name": "CauseCreated",
      "type": "event"
    },
    {
      "anonymous": false,
      "inputs": [
        {
          "indexed": true,
          "internalType": "address",
          "name": "causeAddress",
          "type": "address"
        },
        {
          "indexed": true,
          "internalType": "address",
          "name": "doner",
          "type": "address"
        },
        {
          "indexed": false,
          "internalType": "uint256",
          "name": "amount",
          "type": "uint256"
        },
        {
          "indexed": false,
          "internalType": "uint256",
          "name": "balance",
          "type": "uint256"
        }
      ],
      "name": "DonationDone",
      "type": "event"
    },
    {
      "anonymous": false,
      "inputs": [
        {
          "indexed": true,
          "internalType": "address",
          "name": "sender",
          "type": "address"
        },
        {
          "indexed": true,
          "internalType": "address",
          "name": "beneficiary",
          "type": "address"
        },
        {
          "indexed": false,
          "internalType": "uint256",
          "name": "amount",
          "type": "uint256"
        }
      ],
      "name": "Withdrawal",
      "type": "event"
    },
    {
      "constant": true,
      "inputs": [],
      "name": "Creator",
      "outputs": [
        {
          "internalType": "address",
          "name": "",
          "type": "address"
        }
      ],
      "payable": false,
      "stateMutability": "view",
      "type": "function"
    },
    {
      "constant": true,
      "inputs": [],
      "name": "Details",
      "outputs": [
        {
          "internalType": "string",
          "name": "",
          "type": "string"
        }
      ],
      "payable": false,
      "stateMutability": "view",
      "type": "function"
    },
    {
      "constant": true,
      "inputs": [],
      "name": "EndTime",
      "outputs": [
        {
          "internalType": "uint256",
          "name": "",
          "type": "uint256"
        }
      ],
      "payable": false,
      "stateMutability": "view",
      "type": "function"
    },
    {
      "constant": true,
      "inputs": [],
      "name": "Owner",
      "outputs": [
        {
          "internalType": "address payable",
          "name": "",
          "type": "address"
        }
      ],
      "payable": false,
      "stateMutability": "view",
      "type": "function"
    },
    {
      "constant": true,
      "inputs": [],
      "name": "StartTime",
      "outputs": [
        {
          "internalType": "uint256",
          "name": "",
          "type": "uint256"
        }
      ],
      "payable": false,
      "stateMutability": "view",
      "type": "function"
    },
    {
      "constant": true,
      "inputs": [],
      "name": "TargetAmount",
      "outputs": [
        {
          "internalType": "uint256",
          "name": "",
          "type": "uint256"
        }
      ],
      "payable": false,
      "stateMutability": "view",
      "type": "function"
    },
    {
      "constant": true,
      "inputs": [],
      "name": "Title",
      "outputs": [
        {
          "internalType": "string",
          "name": "",
          "type": "string"
        }
      ],
      "payable": false,
      "stateMutability": "view",
      "type": "function"
    },
    {
      "constant": false,
      "inputs": [],
      "name": "Donate",
      "outputs": [],
      "payable": true,
      "stateMutability": "payable",
      "type": "function"
    },
    {
      "constant": false,
      "inputs": [],
      "name": "Withdraw",
      "outputs": [],
      "payable": false,
      "stateMutability": "nonpayable",
      "type": "function"
    }
  ],
  "bytecode": "0x60806040523480156200001157600080fd5b506040516200118838038062001188833981810160405260c08110156200003757600080fd5b81019080805160405193929190846401000000008211156200005857600080fd5b838201915060208201858111156200006f57600080fd5b82518660018202830111640100000000821117156200008d57600080fd5b8083526020830192505050908051906020019080838360005b83811015620000c3578082015181840152602081019050620000a6565b50505050905090810190601f168015620000f15780820380516001836020036101000a031916815260200191505b50604052602001805160405193929190846401000000008211156200011557600080fd5b838201915060208201858111156200012c57600080fd5b82518660018202830111640100000000821117156200014a57600080fd5b8083526020830192505050908051906020019080838360005b838110156200018057808201518184015260208101905062000163565b50505050905090810190601f168015620001ae5780820380516001836020036101000a031916815260200191505b50604052602001805190602001909291908051906020019092919080519060200190929190805190602001909291905050506014865111156200023d576040517f08c379a00000000000000000000000000000000000000000000000000000000081526004018080602001828103825260398152602001806200108d6039913960400191505060405180910390fd5b6064855111156200029a576040517f08c379a000000000000000000000000000000000000000000000000000000000815260040180806020018281038252603b815260200180620010c6603b913960400191505060405180910390fd5b60008411620002f5576040517f08c379a0000000000000000000000000000000000000000000000000000000008152600401808060200182810382526030815260200180620011586030913960400191505060405180910390fd5b4283116200034f576040517f08c379a0000000000000000000000000000000000000000000000000000000008152600401808060200182810382526023815260200180620011016023913960400191505060405180910390fd5b828211620003a9576040517f08c379a0000000000000000000000000000000000000000000000000000000008152600401808060200182810382526034815260200180620011246034913960400191505060405180910390fd5b33600160006101000a81548173ffffffffffffffffffffffffffffffffffffffff021916908373ffffffffffffffffffffffffffffffffffffffff16021790555080600060016101000a81548173ffffffffffffffffffffffffffffffffffffffff021916908373ffffffffffffffffffffffffffffffffffffffff1602179055508560029080519060200190620004439291906200053e565b5084600390805190602001906200045c9291906200053e565b5083600481905550826005819055508160068190555060008060006101000a81548160ff021916908315150217905550856040518082805190602001908083835b60208310620004c257805182526020820191506020810190506020830392506200049d565b6001836020036101000a03801982511681845116808217855250505050505090500191505060405180910390208173ffffffffffffffffffffffffffffffffffffffff167fb2e1f06987117f65cd734e75f26346e208a3559e39abe57f7760f4d3ac4a361760405160405180910390a3505050505050620005ed565b828054600181600116156101000203166002900490600052602060002090601f016020900481019282601f106200058157805160ff1916838001178555620005b2565b82800160010185558215620005b2579182015b82811115620005b157825182559160200191906001019062000594565b5b509050620005c19190620005c5565b5090565b620005ea91905b80821115620005e6576000816000905550600101620005cc565b5090565b90565b610a9080620005fd6000396000f3fe6080604052600436106100865760003560e01c8063b4a99a4e11610059578063b4a99a4e146101b4578063b87f04041461020b578063d16e18f51461029b578063d917deb5146102c6578063fc4a4a1e146102d057610086565b806318bee97e1461008b57806333360978146100e257806357ea89b61461010d578063b47d89ad14610124575b600080fd5b34801561009757600080fd5b506100a06102fb565b604051808273ffffffffffffffffffffffffffffffffffffffff1673ffffffffffffffffffffffffffffffffffffffff16815260200191505060405180910390f35b3480156100ee57600080fd5b506100f7610321565b6040518082815260200191505060405180910390f35b34801561011957600080fd5b50610122610327565b005b34801561013057600080fd5b506101396105d0565b6040518080602001828103825283818151815260200191508051906020019080838360005b8381101561017957808201518184015260208101905061015e565b50505050905090810190601f1680156101a65780820380516001836020036101000a031916815260200191505b509250505060405180910390f35b3480156101c057600080fd5b506101c961066e565b604051808273ffffffffffffffffffffffffffffffffffffffff1673ffffffffffffffffffffffffffffffffffffffff16815260200191505060405180910390f35b34801561021757600080fd5b50610220610694565b6040518080602001828103825283818151815260200191508051906020019080838360005b83811015610260578082015181840152602081019050610245565b50505050905090810190601f16801561028d5780820380516001836020036101000a031916815260200191505b509250505060405180910390f35b3480156102a757600080fd5b506102b0610732565b6040518082815260200191505060405180910390f35b6102ce610738565b005b3480156102dc57600080fd5b506102e56108b8565b6040518082815260200191505060405180910390f35b600160009054906101000a900473ffffffffffffffffffffffffffffffffffffffff1681565b60065481565b600060019054906101000a900473ffffffffffffffffffffffffffffffffffffffff1673ffffffffffffffffffffffffffffffffffffffff163373ffffffffffffffffffffffffffffffffffffffff16146103cd576040517f08c379a00000000000000000000000000000000000000000000000000000000081526004018080602001828103825260358152602001806108bf6035913960400191505060405180910390fd5b4260065410610427576040517f08c379a000000000000000000000000000000000000000000000000000000000815260040180806020018281038252604e815260200180610977604e913960600191505060405180910390fd5b600015156000809054906101000a900460ff16151514610492576040517f08c379a000000000000000000000000000000000000000000000000000000000815260040180806020018281038252603881526020018061093f6038913960400191505060405180910390fd5b600047905060016000806101000a81548160ff02191690831515021790555060008060019054906101000a900473ffffffffffffffffffffffffffffffffffffffff1673ffffffffffffffffffffffffffffffffffffffff168260405180600001905060006040518083038185875af1925050503d8060008114610532576040519150601f19603f3d011682016040523d82523d6000602084013e610537565b606091505b505090508061054557600080fd5b600060019054906101000a900473ffffffffffffffffffffffffffffffffffffffff1673ffffffffffffffffffffffffffffffffffffffff163073ffffffffffffffffffffffffffffffffffffffff167f2717ead6b9200dd235aad468c9809ea400fe33ac69b5bfaa6d3e90fc922b6398846040518082815260200191505060405180910390a35050565b60038054600181600116156101000203166002900480601f0160208091040260200160405190810160405280929190818152602001828054600181600116156101000203166002900480156106665780601f1061063b57610100808354040283529160200191610666565b820191906000526020600020905b81548152906001019060200180831161064957829003601f168201915b505050505081565b600060019054906101000a900473ffffffffffffffffffffffffffffffffffffffff1681565b60028054600181600116156101000203166002900480601f01602080910402602001604051908101604052809291908181526020018280546001816001161561010002031660029004801561072a5780601f106106ff5761010080835404028352916020019161072a565b820191906000526020600020905b81548152906001019060200180831161070d57829003601f168201915b505050505081565b60045481565b600554421015610793576040517f08c379a000000000000000000000000000000000000000000000000000000000815260040180806020018281038252604f8152602001806109c5604f913960600191505060405180910390fd5b6006544211156107ee576040517f08c379a000000000000000000000000000000000000000000000000000000000815260040180806020018281038252604b8152602001806108f4604b913960600191505060405180910390fd5b600454471115610849576040517f08c379a0000000000000000000000000000000000000000000000000000000008152600401808060200182810382526048815260200180610a146048913960600191505060405180910390fd5b3373ffffffffffffffffffffffffffffffffffffffff163073ffffffffffffffffffffffffffffffffffffffff167f30d7de5d52bfd6be55049aa459cdba52dcdf6587f9a6b6f36e985ad31e42a36d3447604051808381526020018281526020019250505060405180910390a3565b6005548156fe54686973206163636f756e74206973206e6f7420616c6c6f77656420746f20696e766f6b652074686973206f7065726174696f6e2e446f6e6174696f6e206973206e6f74206265696e6720616363657074656420666f7220746869732063617573652e20446f6e6174696f6e20706572696f642068617320657870697265642e5769746864726177206f7065726174696f6e206e6f7420616c6c6f7765642e2046756e647320616c72656164792077697468647261776e2e5769746864726177206f7065726174696f6e206e6f7420616c6c6f7765642e204361757365206973207374696c6c2061637469766520616e6420616363657074696e6720646f6e6174696f6e732e446f6e6174696f6e206973206e6f74206265696e6720616363657074656420666f7220746869732063617573652e20446f6e6174696f6e20706572696f6420686176656e277420737461727465642e446f6e6174696f6e206973206e6f74206265696e6720616363657074656420666f7220746869732063617573652e2054617267657420686173206265656e2061636869657665642ea265627a7a723158200264d55e87bbf96a6e72fdb0aeedfa1146d4d407533770123a7fe55d7f762bd064736f6c63430005100032506c656173652070726f7669646520612073686f7274207469746c6520776869636820697320756e646572203230206368617261637465722e506c656173652070726f7669646520612073686f72742064657461696c20776869636820697320756e64657220313030206368617261637465722e53746172742074696d652073686f756c642062652061206675747572652074696d652e456e642074696d652073686f756c6420626520696e2066757475726520636f6d706172656420746f2053746172742074696d652e506c656173652070726f7669646520612076616c696420616d6f756e7420666f722054617267657420416d6f756e742e",
  "source": "// SPDX-License-Identifier: MIT\n\npragma solidity 0.5.16;\n\n/// @title Cause Contract for Managing Cause Details and Operations\n/// @author Ashutosh Singh Parmar\n/// @notice Enables user to donate fund and admin to withdraw those funds once cause timeline is over\n/// @dev It will be created per Cause\ncontract Cause {\n\n    bool private WithdrawalDone;\n\n    /// @notice entity which created the Cause\n    /// @return Etherium Address of Cause Creator \n    address payable public Owner;\n\n    /// @notice Address responsible for creation of this Contract\n    /// @return Address of the Factory Contract\n    address public Creator;\n\n    /// @notice Cause Title\n    /// @dev Should not be too long, place some limit\n    /// @return Cause Title\n    string public Title;\n\n    /// @notice Cause Detail, any description, http links etc...\n    /// @dev Should not be too long, place some limit\n    /// @return Cause Details\n    string public Details;\n\n    /// @notice Total amount Owner wants to raise money from\n    /// @dev Dont accept donations once limit is reached\n    /// @return Amount\n    uint public TargetAmount;\n    \n    /// @notice Time from which contract starts accepting donations\n    /// @return Seconds from unix epoch\n    uint public StartTime;\n\n    /// @notice Time after which contract will not accept donation\n    /// @return Seconds from unix epoch\n    uint public EndTime;\n\n    /// @notice Event fired when a Cause Contract is created\n    /// @dev For each contract this event must be fired\n    /// @param owner Address resposible for creating the contract instance\n    /// @param title Title of the Cause\n    event CauseCreated(address indexed owner, string indexed title);\n\n    /// @notice Event fired when a donation is made to a cause\n    /// @dev fire with everty donation made\n    /// @param causeAddress Address of the Cause Contract to which donation is made\n    /// @param doner Address which made the donation to cause\n    /// @param amount Amount of the donation\n    event DonationDone(address indexed causeAddress, address indexed doner, uint amount, uint balance);\n\n    /// @notice Event fired when withdrawal of fund is done successfully from the contract\n    /// @dev There will always be only one withdraw event log for a Cause\n    /// @param sender Address of the current Cause contract\n    /// @param beneficiary Address of the owner i.e. beneficiary of this transaction\n    /// @param amount total amount withdrawn  \n    event Withdrawal(address indexed sender, address indexed beneficiary, uint amount);\n\n    constructor(string memory title, string memory details, uint targetAmount, uint startTime, uint endTime, address payable owner) public {\n        //GTH: Make use of string library such as https://github.com/willitscale/solidity-util or https://github.com/Arachnid/solidity-stringutils\n        \n        require(bytes(title).length <= 20, \"Please provide a short title which is under 20 character.\");\n        require(bytes(details).length <= 100, \"Please provide a short detail which is under 100 character.\");\n        require(targetAmount > 0, \"Please provide a valid amount for Target Amount.\");\n        require(startTime > now, \"Start time should be a future time.\");\n        require(endTime > startTime, \"End time should be in future compared to Start time.\");\n\n        Creator = msg.sender;\n        Owner = owner;\n        Title = title;\n        Details = details;\n        TargetAmount = targetAmount;\n        StartTime = startTime;\n        EndTime = endTime;\n        WithdrawalDone = false;\n        emit CauseCreated(owner, title);\n    }\n\n    //Design: AutoDeprication of Operation\n    modifier isAcceptingDonation() {\n        require(now >= StartTime, \"Donation is not being accepted for this cause. Donation period haven't started.\");\n        require(now <= EndTime, \"Donation is not being accepted for this cause. Donation period has expired.\");\n        require(address(this).balance <= TargetAmount , \"Donation is not being accepted for this cause. Target has been achieved.\");\n        _;\n    }\n\n    //Design: Restricted Access\n    modifier onlyOwner() {\n        require(msg.sender == Owner, \"This account is not allowed to invoke this operation.\");\n        _;\n    }\n\n    //Design: Autodeprication of Operation\n    modifier canWithdrawFunds() {\n        require(EndTime < now, \"Withdraw operation not allowed. Cause is still active and accepting donations.\");\n        require(WithdrawalDone == false, \"Withdraw operation not allowed. Funds already withdrawn.\");\n        _;\n    }\n\n    /// @notice Accepts donation payment for the cause from sender active only for a duration\n    function Donate() \n        external\n        payable \n        isAcceptingDonation {\n        emit DonationDone(address(this), msg.sender, msg.value, address(this).balance);\n    }\n\n    /// @notice Allows owner of the Cause to withdraw fund once the Cause timeline for donation is over\n    /// @dev After this operation Contract instance is of no use\n    function Withdraw() \n        external\n        onlyOwner\n        canWithdrawFunds\n    {\n        //Design: Instead of using send or transfer, used call: https://consensys.github.io/smart-contract-best-practices/recommendations/#dont-use-transfer-or-send\n        uint amountToWithdraw = address(this).balance;\n        WithdrawalDone = true; //Design: Reenterancy Attack avoided by updating the state variable\n        (bool success, ) = Owner.call.value(amountToWithdraw)(\"\"); //Design: Handling error of external call\n        require(success);\n        emit Withdrawal(address(this), Owner, amountToWithdraw);\n    }\n    //TODO: Put a fallback function to revert accidentally sent ethers\n}\n",
  "sourcePath": "E:\\git\\donation\\contracts\\Cause.sol",
  "compiler": {
    "name": "solc",
    "version": "0.5.16+commit.9c3226ce.Emscripten.clang"
  },
  "schemaVersion": "3.3.2",
  "updatedAt": "2020-12-04T17:44:04.755Z",
  "networkType": "ethereum",
  "devdoc": {
    "author": "Ashutosh Singh Parmar",
    "details": "It will be created per Cause",
    "methods": {
      "Withdraw()": {
        "details": "After this operation Contract instance is of no use"
      }
    },
    "title": "Cause Contract for Managing Cause Details and Operations"
  },
  "userdoc": {
    "methods": {
      "Donate()": {
        "notice": "Accepts donation payment for the cause from sender active only for a duration"
      },
      "Withdraw()": {
        "notice": "Allows owner of the Cause to withdraw fund once the Cause timeline for donation is over"
      }
    },
    "notice": "Enables user to donate fund and admin to withdraw those funds once cause timeline is over"
  }
}