{
  "contractName": "MockCause",
  "abi": [
    {
      "inputs": [
        {
          "internalType": "string",
          "name": "title",
          "type": "string"
        },
        {
          "internalType": "string",
          "name": "detail",
          "type": "string"
        },
        {
          "internalType": "uint256",
          "name": "targetAmount",
          "type": "uint256"
        },
        {
          "internalType": "uint256",
          "name": "startTime",
          "type": "uint256"
        },
        {
          "internalType": "uint256",
          "name": "endTime",
          "type": "uint256"
        },
        {
          "internalType": "address payable",
          "name": "owner",
          "type": "address"
        }
      ],
      "payable": false,
      "stateMutability": "nonpayable",
      "type": "constructor"
    },
    {
      "anonymous": false,
      "inputs": [
        {
          "indexed": true,
          "internalType": "address",
          "name": "owner",
          "type": "address"
        },
        {
          "indexed": true,
          "internalType": "string",
          "name": "title",
          "type": "string"
        }
      ],
      "name": "CauseCreated",
      "type": "event"
    },
    {
      "anonymous": false,
      "inputs": [
        {
          "indexed": true,
          "internalType": "address",
          "name": "causeAddress",
          "type": "address"
        },
        {
          "indexed": true,
          "internalType": "address",
          "name": "doner",
          "type": "address"
        },
        {
          "indexed": false,
          "internalType": "uint256",
          "name": "amount",
          "type": "uint256"
        },
        {
          "indexed": false,
          "internalType": "uint256",
          "name": "balance",
          "type": "uint256"
        }
      ],
      "name": "DonationDone",
      "type": "event"
    },
    {
      "anonymous": false,
      "inputs": [
        {
          "indexed": true,
          "internalType": "address",
          "name": "sender",
          "type": "address"
        },
        {
          "indexed": true,
          "internalType": "address",
          "name": "beneficiary",
          "type": "address"
        },
        {
          "indexed": false,
          "internalType": "uint256",
          "name": "amount",
          "type": "uint256"
        }
      ],
      "name": "Withdrawal",
      "type": "event"
    },
    {
      "constant": true,
      "inputs": [],
      "name": "Creator",
      "outputs": [
        {
          "internalType": "address",
          "name": "",
          "type": "address"
        }
      ],
      "payable": false,
      "stateMutability": "view",
      "type": "function"
    },
    {
      "constant": true,
      "inputs": [],
      "name": "Details",
      "outputs": [
        {
          "internalType": "string",
          "name": "",
          "type": "string"
        }
      ],
      "payable": false,
      "stateMutability": "view",
      "type": "function"
    },
    {
      "constant": false,
      "inputs": [],
      "name": "Donate",
      "outputs": [],
      "payable": true,
      "stateMutability": "payable",
      "type": "function"
    },
    {
      "constant": true,
      "inputs": [],
      "name": "EndTime",
      "outputs": [
        {
          "internalType": "uint256",
          "name": "",
          "type": "uint256"
        }
      ],
      "payable": false,
      "stateMutability": "view",
      "type": "function"
    },
    {
      "constant": true,
      "inputs": [],
      "name": "Owner",
      "outputs": [
        {
          "internalType": "address payable",
          "name": "",
          "type": "address"
        }
      ],
      "payable": false,
      "stateMutability": "view",
      "type": "function"
    },
    {
      "constant": true,
      "inputs": [],
      "name": "StartTime",
      "outputs": [
        {
          "internalType": "uint256",
          "name": "",
          "type": "uint256"
        }
      ],
      "payable": false,
      "stateMutability": "view",
      "type": "function"
    },
    {
      "constant": true,
      "inputs": [],
      "name": "TargetAmount",
      "outputs": [
        {
          "internalType": "uint256",
          "name": "",
          "type": "uint256"
        }
      ],
      "payable": false,
      "stateMutability": "view",
      "type": "function"
    },
    {
      "constant": true,
      "inputs": [],
      "name": "Title",
      "outputs": [
        {
          "internalType": "string",
          "name": "",
          "type": "string"
        }
      ],
      "payable": false,
      "stateMutability": "view",
      "type": "function"
    },
    {
      "constant": false,
      "inputs": [],
      "name": "Withdraw",
      "outputs": [],
      "payable": false,
      "stateMutability": "nonpayable",
      "type": "function"
    },
    {
      "constant": false,
      "inputs": [
        {
          "internalType": "uint256",
          "name": "sec",
          "type": "uint256"
        }
      ],
      "name": "shiftTime",
      "outputs": [],
      "payable": false,
      "stateMutability": "nonpayable",
      "type": "function"
    }
  ],
  "bytecode": "0x60806040523480156200001157600080fd5b50604051620011fd380380620011fd833981810160405260c08110156200003757600080fd5b81019080805160405193929190846401000000008211156200005857600080fd5b838201915060208201858111156200006f57600080fd5b82518660018202830111640100000000821117156200008d57600080fd5b8083526020830192505050908051906020019080838360005b83811015620000c3578082015181840152602081019050620000a6565b50505050905090810190601f168015620000f15780820380516001836020036101000a031916815260200191505b50604052602001805160405193929190846401000000008211156200011557600080fd5b838201915060208201858111156200012c57600080fd5b82518660018202830111640100000000821117156200014a57600080fd5b8083526020830192505050908051906020019080838360005b838110156200018057808201518184015260208101905062000163565b50505050905090810190601f168015620001ae5780820380516001836020036101000a031916815260200191505b506040526020018051906020019092919080519060200190929190805190602001909291908051906020019092919050505085858585858560148651111562000243576040517f08c379a0000000000000000000000000000000000000000000000000000000008152600401808060200182810382526039815260200180620011026039913960400191505060405180910390fd5b606485511115620002a0576040517f08c379a000000000000000000000000000000000000000000000000000000000815260040180806020018281038252603b8152602001806200113b603b913960400191505060405180910390fd5b60008411620002fb576040517f08c379a0000000000000000000000000000000000000000000000000000000008152600401808060200182810382526030815260200180620011cd6030913960400191505060405180910390fd5b42831162000355576040517f08c379a0000000000000000000000000000000000000000000000000000000008152600401808060200182810382526023815260200180620011766023913960400191505060405180910390fd5b828211620003af576040517f08c379a0000000000000000000000000000000000000000000000000000000008152600401808060200182810382526034815260200180620011996034913960400191505060405180910390fd5b33600160006101000a81548173ffffffffffffffffffffffffffffffffffffffff021916908373ffffffffffffffffffffffffffffffffffffffff16021790555080600060016101000a81548173ffffffffffffffffffffffffffffffffffffffff021916908373ffffffffffffffffffffffffffffffffffffffff1602179055508560029080519060200190620004499291906200054a565b508460039080519060200190620004629291906200054a565b5083600481905550826005819055508160068190555060008060006101000a81548160ff021916908315150217905550856040518082805190602001908083835b60208310620004c85780518252602082019150602081019050602083039250620004a3565b6001836020036101000a03801982511681845116808217855250505050505090500191505060405180910390208173ffffffffffffffffffffffffffffffffffffffff167fb2e1f06987117f65cd734e75f26346e208a3559e39abe57f7760f4d3ac4a361760405160405180910390a3505050505050505050505050620005f9565b828054600181600116156101000203166002900490600052602060002090601f016020900481019282601f106200058d57805160ff1916838001178555620005be565b82800160010185558215620005be579182015b82811115620005bd578251825591602001919060010190620005a0565b5b509050620005cd9190620005d1565b5090565b620005f691905b80821115620005f2576000816000905550600101620005d8565b5090565b90565b610af980620006096000396000f3fe6080604052600436106100915760003560e01c8063b4a99a4e11610059578063b4a99a4e146101fa578063b87f040414610251578063d16e18f5146102e1578063d917deb51461030c578063fc4a4a1e1461031657610091565b806318bee97e1461009657806333360978146100ed57806342ff830f1461011857806357ea89b614610153578063b47d89ad1461016a575b600080fd5b3480156100a257600080fd5b506100ab610341565b604051808273ffffffffffffffffffffffffffffffffffffffff1673ffffffffffffffffffffffffffffffffffffffff16815260200191505060405180910390f35b3480156100f957600080fd5b50610102610367565b6040518082815260200191505060405180910390f35b34801561012457600080fd5b506101516004803603602081101561013b57600080fd5b810190808035906020019092919050505061036d565b005b34801561015f57600080fd5b50610168610390565b005b34801561017657600080fd5b5061017f610639565b6040518080602001828103825283818151815260200191508051906020019080838360005b838110156101bf5780820151818401526020810190506101a4565b50505050905090810190601f1680156101ec5780820380516001836020036101000a031916815260200191505b509250505060405180910390f35b34801561020657600080fd5b5061020f6106d7565b604051808273ffffffffffffffffffffffffffffffffffffffff1673ffffffffffffffffffffffffffffffffffffffff16815260200191505060405180910390f35b34801561025d57600080fd5b506102666106fd565b6040518080602001828103825283818151815260200191508051906020019080838360005b838110156102a657808201518184015260208101905061028b565b50505050905090810190601f1680156102d35780820380516001836020036101000a031916815260200191505b509250505060405180910390f35b3480156102ed57600080fd5b506102f661079b565b6040518082815260200191505060405180910390f35b6103146107a1565b005b34801561032257600080fd5b5061032b610921565b6040518082815260200191505060405180910390f35b600160009054906101000a900473ffffffffffffffffffffffffffffffffffffffff1681565b60065481565b806005600082825403925050819055508060066000828254039250508190555050565b600060019054906101000a900473ffffffffffffffffffffffffffffffffffffffff1673ffffffffffffffffffffffffffffffffffffffff163373ffffffffffffffffffffffffffffffffffffffff1614610436576040517f08c379a00000000000000000000000000000000000000000000000000000000081526004018080602001828103825260358152602001806109286035913960400191505060405180910390fd5b4260065410610490576040517f08c379a000000000000000000000000000000000000000000000000000000000815260040180806020018281038252604e8152602001806109e0604e913960600191505060405180910390fd5b600015156000809054906101000a900460ff161515146104fb576040517f08c379a00000000000000000000000000000000000000000000000000000000081526004018080602001828103825260388152602001806109a86038913960400191505060405180910390fd5b600047905060016000806101000a81548160ff02191690831515021790555060008060019054906101000a900473ffffffffffffffffffffffffffffffffffffffff1673ffffffffffffffffffffffffffffffffffffffff168260405180600001905060006040518083038185875af1925050503d806000811461059b576040519150601f19603f3d011682016040523d82523d6000602084013e6105a0565b606091505b50509050806105ae57600080fd5b600060019054906101000a900473ffffffffffffffffffffffffffffffffffffffff1673ffffffffffffffffffffffffffffffffffffffff163073ffffffffffffffffffffffffffffffffffffffff167f2717ead6b9200dd235aad468c9809ea400fe33ac69b5bfaa6d3e90fc922b6398846040518082815260200191505060405180910390a35050565b60038054600181600116156101000203166002900480601f0160208091040260200160405190810160405280929190818152602001828054600181600116156101000203166002900480156106cf5780601f106106a4576101008083540402835291602001916106cf565b820191906000526020600020905b8154815290600101906020018083116106b257829003601f168201915b505050505081565b600060019054906101000a900473ffffffffffffffffffffffffffffffffffffffff1681565b60028054600181600116156101000203166002900480601f0160208091040260200160405190810160405280929190818152602001828054600181600116156101000203166002900480156107935780601f1061076857610100808354040283529160200191610793565b820191906000526020600020905b81548152906001019060200180831161077657829003601f168201915b505050505081565b60045481565b6005544210156107fc576040517f08c379a000000000000000000000000000000000000000000000000000000000815260040180806020018281038252604f815260200180610a2e604f913960600191505060405180910390fd5b600654421115610857576040517f08c379a000000000000000000000000000000000000000000000000000000000815260040180806020018281038252604b81526020018061095d604b913960600191505060405180910390fd5b6004544711156108b2576040517f08c379a0000000000000000000000000000000000000000000000000000000008152600401808060200182810382526048815260200180610a7d6048913960600191505060405180910390fd5b3373ffffffffffffffffffffffffffffffffffffffff163073ffffffffffffffffffffffffffffffffffffffff167f30d7de5d52bfd6be55049aa459cdba52dcdf6587f9a6b6f36e985ad31e42a36d3447604051808381526020018281526020019250505060405180910390a3565b6005548156fe54686973206163636f756e74206973206e6f7420616c6c6f77656420746f20696e766f6b652074686973206f7065726174696f6e2e446f6e6174696f6e206973206e6f74206265696e6720616363657074656420666f7220746869732063617573652e20446f6e6174696f6e20706572696f642068617320657870697265642e5769746864726177206f7065726174696f6e206e6f7420616c6c6f7765642e2046756e647320616c72656164792077697468647261776e2e5769746864726177206f7065726174696f6e206e6f7420616c6c6f7765642e204361757365206973207374696c6c2061637469766520616e6420616363657074696e6720646f6e6174696f6e732e446f6e6174696f6e206973206e6f74206265696e6720616363657074656420666f7220746869732063617573652e20446f6e6174696f6e20706572696f6420686176656e277420737461727465642e446f6e6174696f6e206973206e6f74206265696e6720616363657074656420666f7220746869732063617573652e2054617267657420686173206265656e2061636869657665642ea265627a7a72315820f95187d616ef3010e6f5074dcb3963c9ead7039984720bf99e05ce6697f95c3264736f6c63430005100032506c656173652070726f7669646520612073686f7274207469746c6520776869636820697320756e646572203230206368617261637465722e506c656173652070726f7669646520612073686f72742064657461696c20776869636820697320756e64657220313030206368617261637465722e53746172742074696d652073686f756c642062652061206675747572652074696d652e456e642074696d652073686f756c6420626520696e2066757475726520636f6d706172656420746f2053746172742074696d652e506c656173652070726f7669646520612076616c696420616d6f756e7420666f722054617267657420416d6f756e742e",
  "source": "// SPDX-License-Identifier: MIT\r\n\r\npragma solidity  0.5.16;\r\nimport \"./Cause.sol\";\r\n\r\n/// @title Mock Cause extending Cause contract which provides some helpers for testing\r\n/// @author Ashutosh Singh Parmar\r\n/// @dev Wont be deployed in network, its for local testing purposes\r\ncontract MockCause is Cause {\r\n    \r\n    //Design: Made use of inheritence\r\n    constructor (string memory title, string memory detail, uint targetAmount, uint startTime, uint endTime, address payable owner) \r\n    Cause(title, detail, targetAmount, startTime, endTime, owner)\r\n    public\r\n    {\r\n\r\n    }\r\n\r\n    /// @notice Reduces the Start Time and End Time by a specified amount\r\n    /// @dev Use this method while testing time dependent logic\r\n    /// @param sec time in seconds\r\n    function shiftTime(uint sec) public {\r\n        StartTime -= sec;\r\n        EndTime -= sec;\r\n    }\r\n}",
  "sourcePath": "E:/Project-Bootcamp/donation/contracts/MockCause.sol",
  "compiler": {
    "name": "solc",
    "version": "0.5.16+commit.9c3226ce.Emscripten.clang"
  },
  "schemaVersion": "3.3.2",
  "updatedAt": "2020-12-04T18:20:51.946Z",
  "devdoc": {
    "author": "Ashutosh Singh Parmar",
    "details": "Wont be deployed in network, its for local testing purposes",
    "methods": {
      "Withdraw()": {
        "details": "After this operation Contract instance is of no use"
      },
      "shiftTime(uint256)": {
        "details": "Use this method while testing time dependent logic",
        "params": {
          "sec": "time in seconds"
        }
      }
    },
    "title": "Mock Cause extending Cause contract which provides some helpers for testing"
  },
  "userdoc": {
    "methods": {
      "Donate()": {
        "notice": "Accepts donation payment for the cause from sender active only for a duration"
      },
      "Withdraw()": {
        "notice": "Allows owner of the Cause to withdraw fund once the Cause timeline for donation is over"
      },
      "shiftTime(uint256)": {
        "notice": "Reduces the Start Time and End Time by a specified amount"
      }
    }
  }
}